:030000000208D51E
:0C08D500787FE4F6D8FD75812002091C34
:100A10000A113F065B4F666D7D077F6F020C000079
:0D0A2000C101C100C102020F0000010E0063
:03000300020A47A7
:030A4700B20132C7
:03000B00020800E8
:10080000C0E0C0F0C0D075D000C000C004C005C0BA
:1008100006C007758CF8758A30AE0CAF0D7C037D71
:10082000E81209BB8F08AE0CAF0D7C007D64120985
:10083000BB7C007D0A1209BB8D09AE0CAF0D7C009C
:100840007D0A1209BB7C007D0A1209BB8D0AAE0C21
:10085000AF0D7C007D0A1209BB8D0BD283D282D2F0
:1008600081D2807408250EF8E62411F8E6F5A0E59B
:100870000E14600E14600F1460102403700EC280FA
:10088000800AC2818006C2828002C283E50E0454BF
:1008900003F50E30012E0510E5107002050FC3940C
:1008A000F4E50F9401401D750F00751000050DE56E
:1008B0000D7002050CD3940FE50C94274006750CBF
:1008C00000750D00D007D006D005D004D000D0D0E0
:0508D000D0F0D0E03281
:0A0A2E00EF1FAC0670011E4C600EB5
:0E0A3800E4F51BE51BC3940550EC051B80F58F
:010A4600228D
:100961007580FFE4F5A075B0FFD288D2A8D2AF752B
:100971008901758CF8758A30D2A9D28C2001252085
:10098100B31D20001AD200050DE50D7002050CD330
:10099100940FE50C9427400CE4F50CF50D8005301F
:1009A100B302C20020B40C200209D202E4F50CF516
:0A09B1000D80C930B4C6C20280C236
:1008E100020961E493A3F8E493A34003F68001F2C3
:1008F10008DFF48029E493A3F85407240CC8C33318
:10090100C4540F4420C8834004F456800146F6DFE6
:10091100E4800B0102040810204080900A10E47E5C
:10092100019360BCA3FF543F30E509541FFEE493DB
:10093100A360010ECF54C025E060A840B8E493A3A2
:10094100FAE493A3F8E493A3C8C582C8CAC583CACD
:10095100F0A3C8C582C8CAC583CADFE9DEE780BE85
:010A2D0000C8
:1009BB00BC000BBE0029EF8DF084FFADF022E4CC20
:1009CB00F875F008EF2FFFEE33FEEC33FCEE9DECE9
:1009DB00984005FCEE9DFE0FD5F0E9E4CEFD22ED2F
:1009EB00F8F5F0EE8420D21CFEADF075F008EF2F79
:1009FB00FFED33FD4007985006D5F0F222C398FD6A
:050A0B000FD5F0EA2206
:00000001FF
